:0400000093EF0AF080
:101000000000010E2D6E2750D8B409EF08F00BEF49
:1010100008F01BEF08F02750D96EDA6ADF30E832AB
:10102000E832070B286E070E286419EF08F01BEF53
:1010300008F072EF08F0000E2D6E88EF08F02750D0
:10104000D96EDA6ADF30E832E832070B286E010E1B
:10105000296E282A2EEF08F0D8902936282E2CEF5A
:1010600008F02950FF0A2A6E2750D96EDA6ADF503D
:10107000070B020DF350150FD96EDA6ADECF2BF095
:10108000DDCF2CF02BC0D9FF2CC0DAFF2A50DF16A1
:1010900088EF08F02750D96EDA6ADF30E832E8329C
:1010A000070B286E010E296E282A59EF08F0D890F8
:1010B0002936282E57EF08F02750D96EDA6ADF500C
:1010C000070B020DF350150FD96EDA6ADECF2AF046
:1010D000DDCF2BF02AC0D9FF2BC0DAFF2950DF1259
:1010E00088EF08F02750D96EDA6ADFBC7AEF08F093
:1010F0007DEF08F0010E7EEF08F0000E000AD8B474
:101100001FEF08F0010AD8B44AEF08F01BEF08F00F
:101110002D5012002750D8B490EF08F092EF08F04D
:10112000A2EF08F02750D96EDA6ADF30E832E832F1
:10113000070B296E070E2964A0EF08F0A2EF08F054
:10114000F7EF08F00CEF09F02750D96EDA6ADF30BC
:10115000E832E832070B296E010E2A6E292AB3EF16
:1011600008F0D8902A36292EB1EF08F02750D96E12
:10117000DA6ADF50070B020DF3500B0FD96EDA6AF3
:10118000DECF2BF0DDCF2CF02BC0D9FF2CC0DAFF47
:101190002A50DF120CEF09F02750D96EDA6ADF30DF
:1011A000E832E832070B296E010E2A6E292ADBEF9E
:1011B00008F0D8902A36292ED9EF08F02A50FF0AD5
:1011C0002B6E2750D96EDA6ADF50070B020DF350F1
:1011D0000B0FD96EDA6ADECF2CF0DDCF2DF02CC0EC
:1011E000D9FF2DC0DAFF2B50DF160CEF09F0285085
:1011F000296E2A6A2A50000AD8B401EF09F0A2EF3A
:1012000008F02950000AD8B4CCEF08F0010AD8B48D
:10121000A4EF08F0A2EF08F01200000E306E2D507F
:10122000D8B415EF09F017EF09F01FEF09F02E50B1
:10123000D8A41DEF09F01FEF09F021EF09F060EFCE
:1012400009F02DC027F0300E286E9FEC09F02D50CC
:10125000D96EDA6A020ED926DE04D8A432EF09F07C
:1012600034EF09F049EF09F03004D8A43AEF09F05F
:101270003CEF09F042EF09F02E50D96EDA6ADF6ACE
:1012800060EF09F02E50D96EDA6A010EDF6E60EF62
:1012900009F02D50D96EDA6A020ED926DF50D8A493
:1012A00054EF09F056EF09F060EF09F03004D8A4CC
:1012B0005CEF09F05EEF09F03CEF09F042EF09F056
:1012C0001200BFEC0AF0220E2D6E320E2E6E0DECC7
:1012D00009F01F0E2D6E330E2E6E0DEC09F03250FC
:1012E000D8A475EF09F077EF09F081EF09F0260E29
:1012F0002E6EDCEC09F0250E2E6E11EC0AF063EF79
:1013000009F03350D8A487EF09F089EF09F093EF83
:1013100009F0250E2E6EDCEC09F0260E2E6E11EC77
:101320000AF063EF09F0250E2E6E11EC0AF0260E7E
:101330002E6E11EC0AF063EF09F000EF00F0275079
:10134000D8B4A5EF09F0A7EF09F0AFEF09F02850E6
:10135000D8A4ADEF09F0AFEF09F0B1EF09F0DBEF82
:1013600009F02850D96EDA6A2750E16EE26AE73058
:10137000E832E832070B296E2750E16EE26AE75047
:10138000070B020DF350010FE16EE26AE6CF2AF07F
:10139000E5CF2BF02AC0E1FF2BC0E2FFE7502C6E17
:1013A000292AD5EF09F0D8902C32292ED3EF09F055
:1013B0002C50010BDF6E12002E50D8A4E2EF09F082
:1013C000E4EF09F0E6EF09F010EF0AF036C030F074
:1013D0002E50D96EDA6ADF500F0B2F6E30502F1857
:1013E000F80B2F18306E2E50D96EDA6ADF38070BE3
:1013F0002F6E2F462F462F4630502F18C70B2F1811
:10140000306E309C2E50D96EDA6ADFAE02D0308E4C
:1014100001D0309E300E276E010E286E8AEC08F047
:1014200012002E50D8A417EF0AF019EF0AF01BEFA4
:101430000AF045EF0AF035C030F02E50D96EDA6A66
:10144000DF500F0B2F6E30502F18F80B2F18306E07
:101450002E50D96EDA6ADF38070B2F6E2F462F46D3
:101460002F4630502F18C70B2F18306E309C2E503F
:10147000D96EDA6ADFAE02D0308E01D0309E300EE7
:10148000276E000E286E8AEC08F012002F50D8A4A8
:101490004CEF0AF04EEF0AF050EF0AF078EF0AF046
:1014A00037C031F02F50D96EDA6ADF500F0B306E33
:1014B00031503018F80B3018316E2F50D96EDA6A6F
:1014C000DF38070B306E304630463046315030182A
:1014D000C70B3018316E319C2F50D96EDA6ADFAEEF
:1014E00002D0318E01D0319E310E2E6E79EC0AF091
:1014F00012002E50D8A47FEF0AF081EF0AF083EF9C
:101500000AF092EF0AF02EC027F001EC08F02EC08E
:1015100027F02E50D96EDA6A000EDFBE010E286E5B
:101520008AEC08F01200580EF66E150EF76E000EDB
:10153000F86E00EE01F010EE26F00900F5CFEEFF98
:10154000E550E150FAE1376A366A356A346A000ECE
:10155000F86E000161EF09F0800F810F820F830F99
:10156000840F890F8A0F8B0F8C0F8D0F920F930FA3
:10157000940F950F960FC80101C001019383260EA9
:101580002F6E46EC0AF0250E2F6E46EC0AF0220E66
:101590002E6ED0EC0AF01F0E2E6ED0EC0AF0120068
:1015A0002E50D8A4D6EF0AF0D8EF0AF0DAEF0AF0FE
:0E15B000DEEF0AF02EC027F001EC08F012006A
:00000001FF
